{
  "contractName": "omneePortal",
  "abi": [
    {
      "constant": true,
      "inputs": [],
      "name": "usersOmneeID",
      "outputs": [
        {
          "name": "",
          "type": "address"
        }
      ],
      "payable": false,
      "stateMutability": "view",
      "type": "function"
    },
    {
      "constant": false,
      "inputs": [],
      "name": "returnID",
      "outputs": [
        {
          "name": "omneeIDC",
          "type": "address"
        },
        {
          "name": "themsg",
          "type": "string"
        }
      ],
      "payable": false,
      "stateMutability": "nonpayable",
      "type": "function"
    },
    {
      "constant": false,
      "inputs": [
        {
          "name": "_entity_type",
          "type": "uint256"
        },
        {
          "name": "_f_name",
          "type": "string"
        },
        {
          "name": "_l_name",
          "type": "string"
        },
        {
          "name": "_email",
          "type": "string"
        }
      ],
      "name": "createID",
      "outputs": [
        {
          "name": "outputmessage",
          "type": "string"
        },
        {
          "name": "usersOmneeID",
          "type": "address"
        }
      ],
      "payable": false,
      "stateMutability": "nonpayable",
      "type": "function"
    },
    {
      "constant": false,
      "inputs": [],
      "name": "userExists",
      "outputs": [
        {
          "name": "",
          "type": "string"
        }
      ],
      "payable": false,
      "stateMutability": "nonpayable",
      "type": "function"
    }
  ],
  "bytecode": "0x6060604052341561000f57600080fd5b61111b8061001e6000396000f300606060405260043610610062576000357c0100000000000000000000000000000000000000000000000000000000900463ffffffff16806348abfaaf146100675780635c3581af146100bc578063b1c95d521461017d578063eae6d4da146102e2575b600080fd5b341561007257600080fd5b61007a610370565b604051808273ffffffffffffffffffffffffffffffffffffffff1673ffffffffffffffffffffffffffffffffffffffff16815260200191505060405180910390f35b34156100c757600080fd5b6100cf610396565b604051808373ffffffffffffffffffffffffffffffffffffffff1673ffffffffffffffffffffffffffffffffffffffff16815260200180602001828103825283818151815260200191508051906020019080838360005b83811015610141578082015181840152602081019050610126565b50505050905090810190601f16801561016e5780820380516001836020036101000a031916815260200191505b50935050505060405180910390f35b341561018857600080fd5b610267600480803590602001909190803590602001908201803590602001908080601f0160208091040260200160405190810160405280939291908181526020018383808284378201915050505050509190803590602001908201803590602001908080601f0160208091040260200160405190810160405280939291908181526020018383808284378201915050505050509190803590602001908201803590602001908080601f01602080910402602001604051908101604052809392919081815260200183838082843782019150505050505091905050610527565b6040518080602001828103825283818151815260200191508051906020019080838360005b838110156102a757808201518184015260208101905061028c565b50505050905090810190601f1680156102d45780820380516001836020036101000a031916815260200191505b509250505060405180910390f35b34156102ed57600080fd5b6102f561081c565b6040518080602001828103825283818151815260200191508051906020019080838360005b8381101561033557808201518184015260208101905061031a565b50505050905090810190601f1680156103625780820380516001836020036101000a031916815260200191505b509250505060405180910390f35b600160009054906101000a900473ffffffffffffffffffffffffffffffffffffffff1681565b60006103a06109df565b60008060003373ffffffffffffffffffffffffffffffffffffffff1673ffffffffffffffffffffffffffffffffffffffff16815260200190815260200160002060009054906101000a900473ffffffffffffffffffffffffffffffffffffffff1673ffffffffffffffffffffffffffffffffffffffff16141561042257610523565b6000803373ffffffffffffffffffffffffffffffffffffffff1673ffffffffffffffffffffffffffffffffffffffff16815260200190815260200160002060009054906101000a900473ffffffffffffffffffffffffffffffffffffffff16600160006101000a81548173ffffffffffffffffffffffffffffffffffffffff021916908373ffffffffffffffffffffffffffffffffffffffff1602179055506000803373ffffffffffffffffffffffffffffffffffffffff1673ffffffffffffffffffffffffffffffffffffffff16815260200190815260200160002060009054906101000a900473ffffffffffffffffffffffffffffffffffffffff1691505b9091565b61052f6109df565b6000806000803373ffffffffffffffffffffffffffffffffffffffff1673ffffffffffffffffffffffffffffffffffffffff16815260200190815260200160002060009054906101000a900473ffffffffffffffffffffffffffffffffffffffff1673ffffffffffffffffffffffffffffffffffffffff1614156107da5760018585856105ba6109f3565b80858152602001806020018060200180602001848103845287818151815260200191508051906020019080838360005b838110156106055780820151818401526020810190506105ea565b50505050905090810190601f1680156106325780820380516001836020036101000a031916815260200191505b50848103835286818151815260200191508051906020019080838360005b8381101561066b578082015181840152602081019050610650565b50505050905090810190601f1680156106985780820380516001836020036101000a031916815260200191505b50848103825285818151815260200191508051906020019080838360005b838110156106d15780820151818401526020810190506106b6565b50505050905090810190601f1680156106fe5780820380516001836020036101000a031916815260200191505b50975050505050505050604051809103906000f080151561071e57600080fd5b9050806000803373ffffffffffffffffffffffffffffffffffffffff1673ffffffffffffffffffffffffffffffffffffffff16815260200190815260200160002060006101000a81548173ffffffffffffffffffffffffffffffffffffffff021916908373ffffffffffffffffffffffffffffffffffffffff1602179055506040805190810160405280601281526020017f4e657720494420776173206372656174656400000000000000000000000000008152509150610813565b6040805190810160405280601181526020017f494420616c72656164792065786973747300000000000000000000000000000081525091505b50949350505050565b6108246109df565b60008060003373ffffffffffffffffffffffffffffffffffffffff1673ffffffffffffffffffffffffffffffffffffffff16815260200190815260200160002060009054906101000a900473ffffffffffffffffffffffffffffffffffffffff1673ffffffffffffffffffffffffffffffffffffffff1614156108f2576040805190810160405280601481526020017f5573657220646f65736e74206578697374206d38000000000000000000000000815250600290805190602001906108ec929190610a03565b5061093f565b6040805190810160405280601381526020017f5573657220646f6573206578697374206d3879000000000000000000000000008152506002908051906020019061093d929190610a03565b505b60028054600181600116156101000203166002900480601f0160208091040260200160405190810160405280929190818152602001828054600181600116156101000203166002900480156109d55780601f106109aa576101008083540402835291602001916109d5565b820191906000526020600020905b8154815290600101906020018083116109b857829003601f168201915b5050505050905090565b602060405190810160405280600081525090565b60405161064780610aa983390190565b828054600181600116156101000203166002900490600052602060002090601f016020900481019282601f10610a4457805160ff1916838001178555610a72565b82800160010185558215610a72579182015b82811115610a71578251825591602001919060010190610a56565b5b509050610a7f9190610a83565b5090565b610aa591905b80821115610aa1576000816000905550600101610a89565b5090565b9056006060604052341561000f57600080fd5b6040516106473803806106478339810160405280805190602001909190805182019190602001805182019190602001805182019190505083600080018190555082600060020190805190602001906100689291906100e7565b5081600060030190805190602001906100829291906100e7565b50806000600a01908051906020019061009c9291906100e7565b5033600d60006101000a81548173ffffffffffffffffffffffffffffffffffffffff021916908373ffffffffffffffffffffffffffffffffffffffff1602179055505050505061018c565b828054600181600116156101000203166002900490600052602060002090601f016020900481019282601f1061012857805160ff1916838001178555610156565b82800160010185558215610156579182015b8281111561015557825182559160200191906001019061013a565b5b5090506101639190610167565b5090565b61018991905b8082111561018557600081600090555060010161016d565b5090565b90565b6104ac8061019b6000396000f30060606040526004361061006d576000357c0100000000000000000000000000000000000000000000000000000000900463ffffffff16806336affb461461007a5780635a9b0b89146101085780638da5cb5b146101965780639ee1bd0f146101eb578063b07d7e3914610240575b341561007857600080fd5b005b341561008557600080fd5b61008d6102b5565b6040518080602001828103825283818151815260200191508051906020019080838360005b838110156100cd5780820151818401526020810190506100b2565b50505050905090810190601f1680156100fa5780820380516001836020036101000a031916815260200191505b509250505060405180910390f35b341561011357600080fd5b61011b61038c565b6040518080602001828103825283818151815260200191508051906020019080838360005b8381101561015b578082015181840152602081019050610140565b50505050905090810190601f1680156101885780820380516001836020036101000a031916815260200191505b509250505060405180910390f35b34156101a157600080fd5b6101a9610437565b604051808273ffffffffffffffffffffffffffffffffffffffff1673ffffffffffffffffffffffffffffffffffffffff16815260200191505060405180910390f35b34156101f657600080fd5b6101fe61045d565b604051808273ffffffffffffffffffffffffffffffffffffffff1673ffffffffffffffffffffffffffffffffffffffff16815260200191505060405180910390f35b341561024b57600080fd5b61029b600480803590602001908201803590602001908080601f01602080910402602001604051908101604052809392919081815260200183838082843782019150505050505091905050610465565b604051808215151515815260200191505060405180910390f35b6102bd61046c565b600d60009054906101000a900473ffffffffffffffffffffffffffffffffffffffff1673ffffffffffffffffffffffffffffffffffffffff163373ffffffffffffffffffffffffffffffffffffffff161415610350576040805190810160405280600b81526020017f68656c6c6f20776f726c640000000000000000000000000000000000000000008152509050610389565b6040805190810160405280600381526020017f777466000000000000000000000000000000000000000000000000000000000081525090505b90565b61039461046c565b60006002018054600181600116156101000203166002900480601f01602080910402602001604051908101604052809291908181526020018280546001816001161561010002031660029004801561042d5780601f106104025761010080835404028352916020019161042d565b820191906000526020600020905b81548152906001019060200180831161041057829003601f168201915b5050505050905090565b600d60009054906101000a900473ffffffffffffffffffffffffffffffffffffffff1681565b600080905090565b6000919050565b6020604051908101604052806000815250905600a165627a7a7230582053f88581dada0a8a9642929a55341f2a292fae0151bf9df31432fc4734d6f6710029a165627a7a72305820ba1549e45df359b753a68ff35bb99762ff6b772999cbe8ba4946ca78b48a5ba00029",
  "source": "pragma solidity ^0.4.6;\nimport \"./omneeID.sol\";\n\ncontract omneePortal {\n    mapping (address => address) private directory;\n    address public usersOmneeID;\n    \n    // Create a new identity\n    function createID(uint _entity_type, string _f_name, \n                        string _l_name, string _email) returns(string outputmessage) {\n        if(directory[msg.sender] == 0) {\n            omneeID newID = new omneeID(1, _f_name, _l_name, _email);\n            directory[msg.sender] = newID;\n            outputmessage = \"New ID was created\";\n            // we have created an ID\n        } else {\n            // identity already exists, so lets login\n            outputmessage = \"ID already exists\";\n        }\n        //usersOmneeID = directory[msg.sender];\n    }\n    string mymsg;\n    function userExists() returns(string){\n        if(directory[msg.sender] == 0) {\n            // user doesnt exist\n            mymsg = 'User doesnt exist m8';\n        } else {\n            // user exists\n            mymsg = 'User does exist m8y';\n        }\n        return mymsg;\n    }\n    \n    // Returns the users contract address\n    function returnID() returns(address omneeIDC, string themsg) {\n        if(directory[msg.sender] == 0) {\n            // no ID here to return\n        } else {\n            usersOmneeID = directory[msg.sender];\n            omneeIDC = directory[msg.sender];\n        }\n    }\n}",
  "sourcePath": "/Library/WebServer/Documents/DataBanking/contracts/omneePortal.sol",
  "compiler": {
    "name": "solc",
    "version": "0.4.18+commit.9cf6e910.Emscripten.clang"
  },
  "schemaVersion": "1.0.1",
  "updatedAt": "2018-02-08T18:39:08.980Z"
}