{
  "contractName": "omneeID",
  "abi": [
    {
      "constant": true,
      "inputs": [],
      "name": "changeInfo",
      "outputs": [
        {
          "name": "",
          "type": "string"
        }
      ],
      "payable": false,
      "stateMutability": "view",
      "type": "function"
    },
    {
      "constant": true,
      "inputs": [],
      "name": "getInfo",
      "outputs": [
        {
          "name": "name",
          "type": "string"
        }
      ],
      "payable": false,
      "stateMutability": "view",
      "type": "function"
    },
    {
      "constant": true,
      "inputs": [],
      "name": "owner",
      "outputs": [
        {
          "name": "",
          "type": "address"
        }
      ],
      "payable": false,
      "stateMutability": "view",
      "type": "function"
    },
    {
      "constant": true,
      "inputs": [],
      "name": "whoIsOwner",
      "outputs": [
        {
          "name": "owner",
          "type": "address"
        }
      ],
      "payable": false,
      "stateMutability": "view",
      "type": "function"
    },
    {
      "constant": false,
      "inputs": [
        {
          "name": "newSaying",
          "type": "string"
        }
      ],
      "name": "saySomethingElse",
      "outputs": [
        {
          "name": "success",
          "type": "bool"
        }
      ],
      "payable": false,
      "stateMutability": "nonpayable",
      "type": "function"
    },
    {
      "inputs": [
        {
          "name": "_entity_type",
          "type": "uint256"
        },
        {
          "name": "_f_name",
          "type": "string"
        },
        {
          "name": "_l_name",
          "type": "string"
        },
        {
          "name": "_email",
          "type": "string"
        }
      ],
      "payable": false,
      "stateMutability": "nonpayable",
      "type": "constructor"
    },
    {
      "payable": false,
      "stateMutability": "nonpayable",
      "type": "fallback"
    }
  ],
  "bytecode": "0x6060604052341561000f57600080fd5b6040516106473803806106478339810160405280805190602001909190805182019190602001805182019190602001805182019190505083600080018190555082600060020190805190602001906100689291906100e7565b5081600060030190805190602001906100829291906100e7565b50806000600a01908051906020019061009c9291906100e7565b5033600d60006101000a81548173ffffffffffffffffffffffffffffffffffffffff021916908373ffffffffffffffffffffffffffffffffffffffff1602179055505050505061018c565b828054600181600116156101000203166002900490600052602060002090601f016020900481019282601f1061012857805160ff1916838001178555610156565b82800160010185558215610156579182015b8281111561015557825182559160200191906001019061013a565b5b5090506101639190610167565b5090565b61018991905b8082111561018557600081600090555060010161016d565b5090565b90565b6104ac8061019b6000396000f30060606040526004361061006d576000357c0100000000000000000000000000000000000000000000000000000000900463ffffffff16806336affb461461007a5780635a9b0b89146101085780638da5cb5b146101965780639ee1bd0f146101eb578063b07d7e3914610240575b341561007857600080fd5b005b341561008557600080fd5b61008d6102b5565b6040518080602001828103825283818151815260200191508051906020019080838360005b838110156100cd5780820151818401526020810190506100b2565b50505050905090810190601f1680156100fa5780820380516001836020036101000a031916815260200191505b509250505060405180910390f35b341561011357600080fd5b61011b61038c565b6040518080602001828103825283818151815260200191508051906020019080838360005b8381101561015b578082015181840152602081019050610140565b50505050905090810190601f1680156101885780820380516001836020036101000a031916815260200191505b509250505060405180910390f35b34156101a157600080fd5b6101a9610437565b604051808273ffffffffffffffffffffffffffffffffffffffff1673ffffffffffffffffffffffffffffffffffffffff16815260200191505060405180910390f35b34156101f657600080fd5b6101fe61045d565b604051808273ffffffffffffffffffffffffffffffffffffffff1673ffffffffffffffffffffffffffffffffffffffff16815260200191505060405180910390f35b341561024b57600080fd5b61029b600480803590602001908201803590602001908080601f01602080910402602001604051908101604052809392919081815260200183838082843782019150505050505091905050610465565b604051808215151515815260200191505060405180910390f35b6102bd61046c565b600d60009054906101000a900473ffffffffffffffffffffffffffffffffffffffff1673ffffffffffffffffffffffffffffffffffffffff163373ffffffffffffffffffffffffffffffffffffffff161415610350576040805190810160405280600b81526020017f68656c6c6f20776f726c640000000000000000000000000000000000000000008152509050610389565b6040805190810160405280600381526020017f777466000000000000000000000000000000000000000000000000000000000081525090505b90565b61039461046c565b60006002018054600181600116156101000203166002900480601f01602080910402602001604051908101604052809291908181526020018280546001816001161561010002031660029004801561042d5780601f106104025761010080835404028352916020019161042d565b820191906000526020600020905b81548152906001019060200180831161041057829003601f168201915b5050505050905090565b600d60009054906101000a900473ffffffffffffffffffffffffffffffffffffffff1681565b600080905090565b6000919050565b6020604051908101604052806000815250905600a165627a7a7230582053f88581dada0a8a9642929a55341f2a292fae0151bf9df31432fc4734d6f6710029",
  "source": "pragma solidity ^0.4.6;\n\ncontract omneeID {\n\n    struct omneeInfo {\n        // whether org or person, 1 for person, 2 for org\n        uint entity_type;\n        uint256 user_id;\n        string firstname;\n        string lastname; // and other names\n        uint dob_day;\n        uint dob_month;\n        uint dob_year;\n        string address1;\n        string address2;\n        string postcode;\n        string email;\n        string passportnum;\n        bool validated;\n    }\n\n    omneeInfo theUser;\n    address public owner;\n\n    // Constructor\n    function omneeID(uint _entity_type, string _f_name,\n                        string _l_name, string _email) {\n        theUser.entity_type = _entity_type;\n        theUser.firstname = _f_name;\n        theUser.lastname = _l_name;\n        theUser.email = _email;\n        owner = msg.sender;\n    }\n\n    // function to make changes to users primary information\n    function changeInfo() constant returns(string) {\n        // Only the creator can alter the name --\n        // the comparison is possible since contracts\n        // are implicitly convertible to addresses.\n        if (msg.sender == address(owner)) {\n            return \"hello world\";\n        } else {\n            return \"wtf\";\n        }\n    }\n\n    // Ask the owner if they can link their identity\n    function () {\n\n    }\n\n    //\n    function getInfo() constant returns(string name) {\n        return theUser.firstname;\n    }\n\n    function whoIsOwner() constant returns(address owner) {\n        return owner;\n    }\n\n    function saySomethingElse(string newSaying) returns(bool success) {\n        //saySomething = newSaying;\n        //return true;\n    }\n}\n",
  "sourcePath": "/Library/WebServer/Documents/DataBanking/contracts/omneeID.sol",
  "compiler": {
    "name": "solc",
    "version": "0.4.18+commit.9cf6e910.Emscripten.clang"
  },
  "schemaVersion": "1.0.1",
  "updatedAt": "2018-02-08T18:39:08.978Z"
}