{
  "contractName": "Sirvan",
  "abi": [
    {
      "constant": true,
      "inputs": [],
      "name": "getName",
      "outputs": [
        {
          "name": "_name",
          "type": "string"
        }
      ],
      "payable": false,
      "stateMutability": "view",
      "type": "function"
    },
    {
      "inputs": [
        {
          "name": "_name",
          "type": "string"
        },
        {
          "name": "_dob",
          "type": "string"
        },
        {
          "name": "_address",
          "type": "string"
        }
      ],
      "payable": false,
      "stateMutability": "nonpayable",
      "type": "function",
      "constant": false,
      "name": "storeSirvan",
      "outputs": []
    },
    {
      "inputs": [
        {
          "name": "_name",
          "type": "string"
        },
        {
          "name": "_dob",
          "type": "string"
        },
        {
          "name": "_address",
          "type": "string"
        }
      ],
      "payable": false,
      "stateMutability": "nonpayable",
      "type": "constructor"
    }
  ],
  "bytecode": "0x6060604052341561000f57600080fd5b6040516104e93803806104e98339810160405280805182019190602001805182019190602001805182019190505082600080019080519060200190610055929190610092565b50816000600101908051906020019061006f929190610092565b508060006002019080519060200190610089929190610092565b50505050610137565b828054600181600116156101000203166002900490600052602060002090601f016020900481019282601f106100d357805160ff1916838001178555610101565b82800160010185558215610101579182015b828111156101005782518255916020019190600101906100e5565b5b50905061010e9190610112565b5090565b61013491905b80821115610130576000816000905550600101610118565b5090565b90565b6103a3806101466000396000f30060606040526004361061004c576000357c0100000000000000000000000000000000000000000000000000000000900463ffffffff16806317d7de7c146100515780639011afe4146100df575b600080fd5b341561005c57600080fd5b6100646101c2565b6040518080602001828103825283818151815260200191508051906020019080838360005b838110156100a4578082015181840152602081019050610089565b50505050905090810190601f1680156100d15780820380516001836020036101000a031916815260200191505b509250505060405180910390f35b34156100ea57600080fd5b6101c0600480803590602001908201803590602001908080601f0160208091040260200160405190810160405280939291908181526020018383808284378201915050505050509190803590602001908201803590602001908080601f0160208091040260200160405190810160405280939291908181526020018383808284378201915050505050509190803590602001908201803590602001908080601f0160208091040260200160405190810160405280939291908181526020018383808284378201915050505050509190505061026c565b005b6101ca6102be565b600080018054600181600116156101000203166002900480601f0160208091040260200160405190810160405280929190818152602001828054600181600116156101000203166002900480156102625780601f1061023757610100808354040283529160200191610262565b820191906000526020600020905b81548152906001019060200180831161024557829003601f168201915b5050505050905090565b826000800190805190602001906102849291906102d2565b50816000600101908051906020019061029e9291906102d2565b5080600060020190805190602001906102b89291906102d2565b50505050565b602060405190810160405280600081525090565b828054600181600116156101000203166002900490600052602060002090601f016020900481019282601f1061031357805160ff1916838001178555610341565b82800160010185558215610341579182015b82811115610340578251825591602001919060010190610325565b5b50905061034e9190610352565b5090565b61037491905b80821115610370576000816000905550600101610358565b5090565b905600a165627a7a723058204e8a0eb2ab2755df486c133e09f621ddfb8b2e0a93758dc6a61a0297c4d5bd6f0029",
  "source": "pragma solidity ^0.4.4;\n\ncontract Sirvan {\n\n    struct Person {\n      string Name;\n      string DOB;\n      string address1;\n\n    }\n\n    Person sirvan;\n\n\n    function Sirvan(string _name, string _dob, string _address){\n      sirvan.Name = _name;\n      sirvan.DOB = _dob;\n      sirvan.address1 = _address;\n    }\n\n    function storeSirvan(string _name, string _dob, string _address){\n      sirvan.Name = _name;\n      sirvan.DOB = _dob;\n      sirvan.address1 = _address;\n    }\n\n    function getName() constant returns (string _name){\n      return sirvan.Name;\n    }\n\n}\n",
  "sourcePath": "/Library/WebServer/Documents/DataBanking/contracts/Sirvan.sol",
  "compiler": {
    "name": "solc",
    "version": "0.4.18+commit.9cf6e910.Emscripten.clang"
  },
  "schemaVersion": "1.0.1",
  "updatedAt": "2018-02-08T18:39:08.975Z"
}