{
  "contractName": "userInfoContract",
  "abi": [
    {
      "constant": false,
      "inputs": [
        {
          "name": "_name",
          "type": "string"
        },
        {
          "name": "_dob",
          "type": "string"
        }
      ],
      "name": "storeUserInfo",
      "outputs": [
        {
          "name": "",
          "type": "int256"
        }
      ],
      "payable": false,
      "stateMutability": "nonpayable",
      "type": "function"
    },
    {
      "anonymous": false,
      "inputs": [
        {
          "indexed": false,
          "name": "_name",
          "type": "string"
        },
        {
          "indexed": true,
          "name": "_sender",
          "type": "address"
        },
        {
          "indexed": false,
          "name": "_dob",
          "type": "string"
        },
        {
          "indexed": false,
          "name": "_time",
          "type": "uint256"
        }
      ],
      "name": "userInfo",
      "type": "event"
    }
  ],
  "bytecode": "0x6060604052341561000f57600080fd5b6102568061001e6000396000f300606060405260043610610041576000357c0100000000000000000000000000000000000000000000000000000000900463ffffffff1680635d0b8eba14610046575b600080fd5b341561005157600080fd5b6100e4600480803590602001908201803590602001908080601f0160208091040260200160405190810160405280939291908181526020018383808284378201915050505050509190803590602001908201803590602001908080601f016020809104026020016040519081016040528093929190818152602001838380828437820191505050505050919050506100fa565b6040518082815260200191505060405180910390f35b60003373ffffffffffffffffffffffffffffffffffffffff167f277155ede51715e838dfeec7d2ac0505631bcd86b73c9488920daee5a0ab46b9848442604051808060200180602001848152602001838103835286818151815260200191508051906020019080838360005b83811015610181578082015181840152602081019050610166565b50505050905090810190601f1680156101ae5780820380516001836020036101000a031916815260200191505b50838103825285818151815260200191508051906020019080838360005b838110156101e75780820151818401526020810190506101cc565b50505050905090810190601f1680156102145780820380516001836020036101000a031916815260200191505b509550505050505060405180910390a2929150505600a165627a7a72305820d80f4beb54aa82ae110062750e68e72a28fbe359678ef657a16eb2c33957bf400029",
  "source": "pragma solidity ^0.4.4;\n\ncontract userInfoContract {\n\n  event userInfo(\n    string _name,\n    address indexed _sender,\n    string _dob,\n    uint256 _time);\n\n  function storeUserInfo(string _name, string _dob) returns (int256) {\n    // perform deposit, update user’s balance, etc\n    userInfo(_name, msg.sender, _dob, now);\n  }\n\n}\n",
  "sourcePath": "/Library/WebServer/Documents/DataBanking/contracts/userInfoContract.sol",
  "compiler": {
    "name": "solc",
    "version": "0.4.18+commit.9cf6e910.Emscripten.clang"
  },
  "schemaVersion": "1.0.1",
  "updatedAt": "2018-02-08T18:39:08.981Z"
}